:100000000C9434000C948F080C94A5080C945100A7
:100010000C94BB080C9451000C9451000C945100AA
:100020000C9451000C9451000C9451000C9451000C
:100030000C9451000C9451000C9451000C945100FC
:100040000C9451000C9451000C9451000C945100EC
:100050000C9451000C9451000C9451000C945100DC
:100060000C9451000C94510011241FBECFEFD4E02A
:10007000DEBFCDBF12E0A0E0B1E0EAE9F6E302C0E6
:1000800005900D92AC37B107D9F712E0ACE7B2E0BA
:1000900001C01D92A43EB107E1F70E9460130C94C9
:1000A0004B1B0C940000EF92FF920F931F937B0168
:1000B0008C0120E030E040E05FE40E94530388239D
:1000C0008CF0C801B70120E030E040E05FE40E941E
:1000D000CB010E9411049B01AC01205030404040F4
:1000E000504806C0C801B7010E9411049B01AC0131
:1000F000B901CA011F910F91FF90EF900895A0E000
:10010000B0E0E5E8F0E00C945B17DC012B01FA01AC
:100110009C91923008F439C1EB018881823008F457
:1001200033C1943069F4843009F02FC111969C9149
:1001300011978981981709F428C1A0E7B1E025C17A
:10014000843009F421C18230A9F4923009F01DC134
:100150009A01AD0188E0EA010990AE01E901099236
:100160009E018150C1F7E201898111969C918923FA
:10017000818308C1923009F407C112962D903C90FA
:100180001397EB018A819B811496AD90BD90CD9021
:10019000DC901797EC80FD800E811F819101281B58
:1001A000390BB90137FF04C066277727621B730B31
:1001B000603271050CF061C0121613066CF5370140
:1001C0004801062E04C096948794779467940A9405
:1001D000D2F721E030E040E050E004C0220F331FAE
:1001E000441F551F6A95D2F721503040404050407F
:1001F0002E213F2140235123211531054105510571
:1002000021F021E030E040E050E079018A01E62869
:10021000F728082919293CC0232BD1F1260E371EB7
:1002200035014601062E04C096948794779467940E
:100230000A94D2F721E030E040E050E004C0220F01
:10024000331F441F551F6A95D2F72150304040405C
:1002500050402A213B214C215D21211531054105CA
:10026000510521F021E030E040E050E059016A0101
:10027000A628B728C828D9280BC0821593052CF0CA
:100280001C01AA24BB24650103C0EE24FF248701BE
:1002900011969C91D20111968C91981709F445C042
:1002A000992339F0A80197012A193B094C095D09E6
:1002B00006C0A60195012E193F09400B510B57FDB1
:1002C00008C0118233822282248335834683578378
:1002D0001DC081E081833382228288279927DC0137
:1002E000821B930BA40BB50B84839583A683B783E2
:1002F0000DC0220F331F441F551F248335834683AF
:1003000057838281938101979383828324813581EE
:1003100046815781DA01C9010197A109B1098F5FAF
:100320009F4FAF4FBF4328F30BC09183338222828C
:10033000EA0CFB1C0C1D1D1DE482F582068317834D
:1003400083E08083248135814681578157FF1AC01D
:10035000C901AA2797FDA095BA2F81709070A0704F
:10036000B0705695479537952795822B932BA42BE4
:10037000B52B84839583A683B7838281938101966D
:1003800093838283DF0101C0D201CD01CDB7DEB7F7
:10039000E2E10C947717A0E2B0E0E1EDF1E00C941B
:1003A000671769837A838B839C832D833E834F8376
:1003B0005887E9E0EE2EF12CEC0EFD1ECE010196E1
:1003C000B7010E9489058E010F5E1F4FCE01059671
:1003D000B8010E9489058A8991E089278A8BC70123
:1003E000B801AE01475E5F4F0E947F000E94B404D7
:1003F000A096E6E00C948317A0E2B0E0E2E0F2E021
:100400000C94671769837A838B839C832D833E8347
:100410004F835887F9E0EF2EF12CEC0EFD1ECE0134
:100420000196B7010E9489058E010F5E1F4FCE0114
:100430000596B8010E948905C701B801AE01475E63
:100440005F4F0E947F000E94B404A096E6E00C94E7
:100450008317A0E2B0E0EFE2F2E00C945B1769834F
:100460007A838B839C832D833E834F835887CE0171
:100470000196BE01675F7F4F0E948905CE010596F8
:10048000BE016F5E7F4F0E9489059985923088F08A
:1004900089898230C8F0943019F4823051F404C054
:1004A000843029F4923081F480E791E0C6C0923024
:1004B00049F420E09A858A89981321E02A87CE01A1
:1004C0000996BBC0823049F420E09A858A89981346
:1004D00021E02A8BCE014196B0C02D843E844F840A
:1004E00058886D887E888F88988CEE24FF24870139
:1004F000AA24BB24650140E050E060E070E0E0E049
:10050000F0E0C10181709070892BE9F0E60CF71CD6
:10051000081D191D9A01AB012A0D3B1D4C1D5D1DC7
:1005200080E090E0A0E0B0E0E614F70408051905CB
:1005300020F481E090E0A0E0B0E0BA01A901480F0A
:10054000591F6A1F7B1FAA0CBB1CCC1CDD1C97FE0D
:1005500008C081E090E0A0E0B0E0A82AB92ACA2A49
:10056000DB2A3196E032F10549F0660C771C881CD5
:10057000991C5694479437942794C3CFFA85EA89F7
:100580002B893C898B859C85280F391F2E5F3F4F17
:1005900017C0CA0181709070892B61F0169507957C
:1005A000F794E79480E090E0A0E0B0E8E82AF92A28
:1005B0000A2B1B2B76956795579547952F5F3F4FD5
:1005C00077FDE7CF0CC0440F551F661F771F17FD3F
:1005D0004160EE0CFF1C001F111F215030404030C5
:1005E00090E0590790E0690790E4790760F32B8F5A
:1005F0003C8FDB01CA018F779070A070B07080349F
:100600009105A105B10561F447FD0AC0E114F104AB
:100610000105110529F0405C5F4F6F4F7F4F407817
:100620001A8EFE1711F081E08A8F4D8F5E8F6F8FCB
:1006300078A383E0898FCE0149960E94B404A096E6
:10064000E2E10C947717A8E1B0E0E9E2F3E00C9462
:10065000671769837A838B839C832D833E834F83C3
:10066000588789E0E82EF12CEC0EFD1ECE01019694
:10067000B7010E9489058E010F5E1F4FCE010596BE
:10068000B8010E9489058985823040F089898230CD
:1006900028F0C701B8010E94010601C08FEF6896DB
:1006A000E6E00C948317A8E1B0E0E9E5F3E00C94F0
:1006B000671769837A838B839C832D833E834F8363
:1006C000588789E0E82EF12CEC0EFD1ECE01019634
:1006D000B7010E9489058E010F5E1F4FCE0105965E
:1006E000B8010E9489058985823040F0898982306D
:1006F00028F0C701B8010E94010601C08FEF68967B
:10070000E6E00C948317A8E1B0E0E9E8F3E00C948C
:10071000671769837A838B839C832D833E834F8302
:10072000588789E0E82EF12CEC0EFD1ECE010196D3
:10073000B7010E9489058E010F5E1F4FCE010596FD
:10074000B8010E9489058985823040F0898982300C
:1007500028F0C701B8010E94010601C081E0689637
:10076000E6E00C948317A8E0B0E0E9EBF3E00C942A
:1007700064179B01AC0183E08983DA01C9018827F2
:10078000B7FD83959927AA27BB27B82E21153105D8
:100790004105510519F482E089833AC08823A9F004
:1007A000203080E0380780E0480780E8580729F4C7
:1007B00060E070E080E09FEC30C0EE24FF24870111
:1007C000E21AF30A040B150B02C079018A018EE1CB
:1007D000C82ED12CDC82CB82ED82FE820F8318875B
:1007E000C801B7010E94650401971816190684F420
:1007F000082E04C0EE0CFF1C001F111F0A94D2F734
:10080000ED82FE820F831887C81AD90ADC82CB8258
:10081000BA82CE0101960E94B4042896E9E00C94B5
:100820008017ACE0B0E0E7E1F4E00C946B1769836B
:100830007A838B839C83CE010196BE016B5F7F4FD1
:100840000E9489058D81823061F1823050F18430BF
:1008500021F48E81882351F12EC02F81388537FDF8
:1008600020C06E812F3131051CF06623F9F023C0C2
:100870008EE190E0821B930B29853A854B855C8540
:1008800004C056954795379527958A95D2F76623E4
:10089000B1F050954095309521953F4F4F4F5F4FA8
:1008A0000EC020E030E040E050E009C02FEF3FEF05
:1008B0004FEF5FE704C020E030E040E050E8B901CE
:1008C000CA012C96E2E00C948717EF92FF920F93E7
:1008D0001F937B018C0180E0E81680E0F80681E040
:1008E000080780E0180788F48FEFE816F104010587
:1008F000110531F028F088E090E0A0E0B0E017C0EA
:1009000080E090E0A0E0B0E012C080E0E81680E077
:10091000F80680E0080781E0180728F088E190E0F9
:10092000A0E0B0E004C080E190E0A0E0B0E020E210
:1009300030E040E050E0281B390B4A0B5B0B04C051
:1009400016950795F794E7948A95D2F7F701E8583A
:10095000FE4F8081281B310941095109C9011F91AE
:100960000F91FF90EF900895DF92EF92FF920F9317
:100970001F93FC01E480F58006811781D18080817E
:10098000823048F480E090E0A0E1B0E0E82AF92A63
:100990000A2B1B2BA5C0843009F49FC0823021F4A0
:1009A000EE24FF24870105C0E114F10401051105BF
:1009B00019F4E0E0F0E096C0628173819FEF623845
:1009C00079070CF05BC022E83FEF261B370B2A317A
:1009D00031052CF020E030E040E050E02AC0B801C2
:1009E000A701022E04C076956795579547950A94FE
:1009F000D2F781E090E0A0E0B0E004C0880F991F3A
:100A0000AA1FBB1F2A95D2F70197A109B1098E2110
:100A10009F21A023B1230097A105B10521F081E01A
:100A200090E0A0E0B0E09A01AB01282B392B4A2BD3
:100A30005B2BDA01C9018F779070A070B0708034A1
:100A40009105A105B10539F427FF09C0205C3F4F8E
:100A50004F4F5F4F04C0215C3F4F4F4F5F4FE0E06F
:100A6000F0E02030A0E03A07A0E04A07A0E45A07EF
:100A700010F0E1E0F0E079018A0127C060387105EB
:100A800064F5FB01E158FF4FD801C7018F779070E3
:100A9000A070B07080349105A105B10539F4E7FE6E
:100AA0000DC080E490E0A0E0B0E004C08FE390E0EF
:100AB000A0E0B0E0E80EF91E0A1F1B1F17FF05C0DB
:100AC00016950795F794E794319687E01695079564
:100AD000F794E7948A95D1F705C0EE24FF248701A7
:100AE000EFEFF0E06E2F679566276795902F9F7761
:100AF000D794DD24D7948E2F8695492F462B582FD7
:100B00005D29B701CA011F910F91FF90EF90DF900F
:100B10000895FC01DB01408151812281622F6F77B2
:100B200070E0221F2227221F9381892F880F822B9A
:100B3000282F30E0991F9927991F11969C931197A0
:100B400021153105A9F5411551056105710511F40E
:100B500082E037C082E89FEF13969C938E931297A2
:100B60009A01AB0167E0220F331F441F551F6A959E
:100B7000D1F783E08C930DC0220F331F441F551F04
:100B800012968D919C911397019713969C938E9337
:100B90001297203080E0380780E0480780E458074B
:100BA00058F314962D933D934D935C9317970895A6
:100BB0002F3F310579F4411551056105710519F48F
:100BC00084E08C93089564FF03C081E08C9312C08D
:100BD0001C9210C02F57304013963C932E931297BF
:100BE00083E08C9387E0440F551F661F771F8A951B
:100BF000D1F7706414964D935D936D937C93179722
:100C000008951F93DC01FB019C91923008F447C0CA
:100C10008081823008F443C0943051F411961C91C5
:100C2000843099F58181682F70E0611B71093FC0A4
:100C3000843021F0923031F48230B9F181818823FF
:100C400089F12DC011961C9111978230F1F08181AC
:100C50001817D9F412962D913C91139782819381A4
:100C60008217930794F028173907BCF014968D91DA
:100C70009D910D90BC91A02D248135814681578195
:100C8000281739074A075B0718F4112341F00AC0F7
:100C900082179307A407B50740F4112319F061E008
:100CA00070E005C06FEF7FEF02C060E070E0CB0145
:100CB0001F9108950F931F93CF93DF93E901DC01F8
:100CC00024E0AA0FBB1F2A95E1F711979A01201B78
:100CD000310B289FF001299FF00D389FF00D112452
:100CE000E60FF71F2FEF3FEF0DC00417150734F085
:100CF000CA010796801791070CF09F01405F5F4F74
:100D0000EA0FFB1F4C175D0784F3C901DF91CF91F8
:100D10001F910F9108950F931F93CF93DF93EC01D1
:100D200081E0C038D80728F08FEFCF3FD80709F00F
:100D30005EC080E190E06FE770E040E050E028E7BF
:100D400030E08E010E945A069C018FEF2F3F38073A
:100D500009F047C080E190E067E770E048E050E0CC
:100D600020E830E00E945A069C018FEF2F3F3807A1
:100D7000C1F580E190E06FEF70E040E850E028EFCF
:100D800030E00E945A069C018FEF2F3F380749F54B
:100D900080E190E067EF70E048E850E020E031E06B
:100DA0000E945A069C018FEF2F3F3807D1F480E153
:100DB00090E06FE771E040E051E028E731E00E9409
:100DC0005A069C018FEF2F3F380759F480E190E0DD
:100DD00067E771E048E051E020E831E00E945A0600
:100DE0009C01C901DF91CF911F910F9108959E0140
:100DF000F8CF009739F470937D0260937C0281E014
:100E000090E067C181309105E1F54115510599F0F8
:100E10004130510559F4615F7F4F70937D026093BB
:100E20007C0250937F0240937E0222C042305105E3
:100E3000A9F46F5F7F4F70937D0260937C0280E125
:100E400090E090937F0280937E0280E290E0909306
:100E500081028093800280E390E05AC1615E7F4FFF
:100E600070937D0260937C0290937F0280937E0258
:100E700082E090E0909381028093800283E090E092
:100E800047C18230910589F54115510519F46F5F0D
:100E90007F4F0BC04130510519F46F5F7F4F18C071
:100EA00042305105A9F46F5E7F4F70937D026093CD
:100EB0007C0281E090E090937F0280937E0280E14B
:100EC00090E090938102809380028FE090E020C1B7
:100ED00070937D0260937C0281E190E090937F02A9
:100EE00080937E0280E190E068C08330910581F5B7
:100EF0004115510559F04130510519F46E5F7F4F8E
:100F00001AC042305105A9F4605F7F4F70937D0293
:100F100060937C0281E090E090937F0280937E0258
:100F200081E190E0909381028093800282E190E0E1
:100F3000EFC06F5F7F4F70937D0260937C028FE004
:100F400090E090937F0280937E0280E190E065C004
:100F50008430910509F04DC04115510569F4709335
:100F60007D0260937C0280E190E090937F02809309
:100F70007E0280E290E021C04130510569F4615F5A
:100F80007F4F70937D0260937C0250937F02409369
:100F90007E0282E090E026C042305105A9F4615003
:100FA000704070937D0260937C0281E090E09093AA
:100FB0007F0280937E0281E190E090938102809392
:100FC000800281E290E0A4C06F5F7F4F70937D024A
:100FD00060937C028EE090E090937F0280937E028B
:100FE0008FE090E0909381028093800280E190E016
:100FF0008FC085309105E9F541155105A9F46F5F62
:101000007F4F70937D0260937C0280E190E090932B
:101010007F0280937E0280E290E090938102809331
:1010200080028FE190E074C04130510539F4709333
:101030007D0260937C0280E190E06ECF42305105EA
:1010400049F46F5F7F4F70937D0260937C0281E073
:1010500090E02DC0605F7F4F70937D0260937C02B3
:1010600081E090E090937F0280937E0282E090E0A6
:1010700059CF069709F050C04115510569F4709396
:101080007D0260937C0281E090E090937F028093E8
:101090007E0282E090E023C04130510579F46F5028
:1010A000704070937D0260937C028FE090E090939B
:1010B0007F0280937E0280E190E024C06F507040F8
:1010C0004230510599F470937D0260937C028FE069
:1010D00090E090937F0280937E0280E190E0909375
:1010E00081028093800281E190E012C070937D02C2
:1010F00060937C0280E190E090937F0280937E0277
:1011000081E190E0909381028093800280E290E000
:1011100090938302809382028CE792E008951F925D
:101120000F920FB60F9211248F939F934A9906C086
:1011300081E090E090938502809384029F918F914B
:101140000F900FBE0F901F9018951F920F920FB621
:101150000F9211248F939F934B9906C081E090E0EA
:1011600090938702809386029F918F910F900FBE7C
:101170000F901F9018951F920F920FB60F92112487
:101180008F939F93329906C081E090E090938902FB
:1011900080938802339906C081E090E090938B029F
:1011A00080938A02319906C081E090E090938D028D
:1011B00080938C02309906C081E090E090938F027A
:1011C00080938E029F918F910F900FBE0F901F9072
:1011D0001895EF92FF920F931F93CF93DF938B019C
:1011E000EC0138E1E32EF12CE80EF91E07C0CE0128
:1011F000F80161918F010E94241A2896CE15DF050F
:10120000B1F7DF91CF911F910F91FF90EF9008956B
:101210006F927F928F929F92AF92BF92CF92DF9206
:10122000EF92FF920F931F93DF93CF9300D000D0E4
:10123000CDB7DEB75C0181E090E09A8389830E949C
:10124000E31580E091E00E946A1680E061E00E9470
:101250003A1684E191E00E946A1680E062E00E9402
:101260003A1688E291E00E946A1685E063E00E94E7
:101270003A168AE391E00E946A1680E060E00E94DC
:101280003A168DE00E94D51500E010E0EE24FF2410
:10129000CC24DD2473E0872E912C8C0E9D1E60E5FE
:1012A000662E63EC762EF2C08091840290918502C6
:1012B000892BD1F00230110539F482E0E816F104EF
:1012C00049F400E110E008C00115110519F402E12C
:1012D00010E002C002501040802F6E2D0E943A167E
:1012E000109285021092840280918602909187026A
:1012F000892BD1F00031110539F482E0E816F104B0
:1013000049F402E010E008C00231110519F400E0D0
:1013100010E002C00E5F1F4F802F6E2D0E943A1604
:10132000109287021092860280918C0290918D0219
:10133000892BE1F082E0E816F10471F081E0E81613
:10134000F10431F40115110539F00231110521F0D4
:101350000894E11CF11C02C0EE24FF24802F6E2DA6
:101360000E943A1610928D0210928C0280918E0289
:1013700090918F02892BE1F0E114F10451F40231D4
:10138000110559F00115110541F052E0E52EF12C3F
:1013900007C00894E108F10803C041E0E42EF12CF5
:1013A000802F6E2D0E943A1610928F0210928E029C
:1013B0008091880290918902892B09F464C08C2D58
:1013C000855F63E00E943A16E114F10441F483E082
:1013D000C816D10484F4F801E050FF4F3EC081E00C
:1013E000E816F10441F483E0C816D10424F4F801AE
:1013F000EC5EFE4F32C00E301105A1F4C114D104D1
:1014000019F182E0E816F104D9F40894C108D10872
:101410008C2D855F63E00E943A1684E491E00E947F
:101420006A1629C00031110559F483E0C816D104A9
:1014300039F482E0E816F104F1F41A8219821BC033
:1014400083E0C816D104BCF40E301105A1F00031C0
:10145000110589F0F801E85DFE4F80818B831C82C5
:10146000C4010E946A16F501EC0DFD1D8B8180837D
:101470000894C11CD11C802F6E2D0E943A16109228
:10148000890210928802C3010197F1F789819A813C
:10149000892B09F009CF0E94E3158CE00E94D51535
:1014A0000F900F900F900F90CF91DF911F910F91A0
:1014B000FF90EF90DF90CF90BF90AF909F908F9074
:1014C0007F906F9008950F931F93CF93DF9300E069
:1014D00010E0C0E0D0E0CE010E948B060E943714DD
:1014E000080F191F2196CA30D105A9F720E030E076
:1014F0000A30110514F421E030E0C901DF91CF91E9
:101500001F910F910895AF92BF92CF92DF92EF9209
:10151000FF920F931F930E94F9067C01FC018081CA
:1015200091810E948B060E9437145C01F701828131
:10153000938120813181820F931F0E948B060E942C
:1015400037148C01F7018481958120813181820FCC
:10155000931F0E948B060E9437146C01F70186814D
:10156000978120813181820F931F0E948B060E94F8
:1015700037140A0D1B1D0C0D1D1D20E030E0080F57
:10158000191F0430110511F021E030E0C9011F914D
:101590000F91FF90EF90DF90CF90BF90AF900895A4
:1015A000CF93DF93CBE1D0E0CE010E948B060E9467
:1015B0006B14CE0101960E948B060E946B14CE0123
:1015C00002960E948B060E946B14CE0103960E9425
:1015D0008B060E946B146096CB36D10529F7DF91FC
:1015E000CF9108950F931F930E94F9068C01FC017F
:1015F000808191810E948B060E946B14F801828188
:10160000938120813181820F931F0E948B060E945B
:101610006B14F8018481958120813181820F931FA1
:101620000E948B060E946B14F801868197812081AD
:101630003181820F931F0E948B060E946B141F91B1
:101640000F9108952F923F924F925F926F927F92E7
:101650008F929F92AF92BF92CF92DF92EF92FF92C2
:101660000F931F93CF93DF93EE24FF248701AA24C7
:10167000BB2444244A94542C6AC0CE018A0D9B1D7D
:101680000E948B060E943714C80ED91E2196CA30BC
:10169000D10599F7CD2809F04EC0B0EF6B2EBFEF02
:1016A0007B2E6A0C7B1C4501AAE02A2E312C2A0CC9
:1016B0003B1CC4010E948B060E946B146201E30173
:1016C00016C0CE010E948B060E943714892B59F454
:1016D000CE010E948B060E946B14CE0140960E94A0
:1016E0008B060E941F140894C108D10860971C142F
:1016F0001D043CF30894811C911C0894611C711C0E
:1017000082149304B1F6E114F1040105110531F4DA
:10171000F4E1EF2EF12C012D112D0DC0D801C701E0
:10172000E2E0880F991FAA1FBB1FEA95D1F7E80EC8
:10173000F91E0A1F1B1F80E190E0A80EB91E089435
:10174000411C511C90E8A91691E0B90629F0CC245F
:10175000DD24C0E0D0E091CFB701C801DF91CF9187
:101760001F910F91FF90EF90DF90CF90BF90AF90BF
:101770009F908F907F906F905F904F903F902F90B1
:1017800008950F931F93CF93DF938C016CE270E069
:1017900040E050E00E94F906EC01C8010297029770
:1017A00018F00630110529F48881998101979983F1
:1017B0008883888199810E948B060E941F148A81E8
:1017C0009B8128813981820F931F0E948B060E9482
:1017D0001F148C819D8128813981820F931F0E9463
:1017E0008B060E941F148E819F8128813981820F70
:1017F000931F0E948B060E941F14DF91CF911F91AF
:101800000F9108956F927F928F929F92AF92BF92A5
:10181000CF92DF92EF92FF920F931F93CF93DF93BC
:101820008C017B016A010E94F906EC018C809D808D
:101830007A806B80AE80BF80C801B701A6010E948C
:10184000830A892BD9F5872D962D9C0128153905FA
:101850000CF494012A153B050CF4950188819981BB
:10186000820F931F0E948B06805891403CF588811F
:1018700099810E948B060E941F148A819B81288176
:101880003981820F931F0E948B060E941F148C8146
:101890009D8128813981820F931F0E948B060E94AF
:1018A0001F148E819F8128813981820F931F0E948E
:1018B0008B060E941F1421E030E002C020E030E0DF
:1018C000C901DF91CF911F910F91FF90EF90DF90B1
:1018D000CF90BF90AF909F908F907F906F90089522
:1018E000CF92DF92EF92FF920F931F93CF93DF93EC
:1018F0007C016B01EA0180918C0290918D02892B11
:1019000019F108811981C701A8010E94F20A888192
:101910009981833091051CF01982188203C00196C9
:101920009983888348815981C701B6010E94020CBE
:10193000892B11F41983088310928D0210928C0266
:1019400088EA91E60197F1F7DF91CF911F910F910E
:10195000FF90EF90DF90CF900895CF92DF92EF92BB
:10196000FF920F931F93CF93DF937C016B01EA01EA
:1019700080918E0290918F02892B19F10881198133
:10198000C701A8010E94F20A8881998118161906D8
:101990001CF083E090E001C001979983888348811F
:1019A0005981C701B6010E94020C892B11F41983D9
:1019B000088310928F0210928E0288EA91E60197B6
:1019C000F1F7DF91CF911F910F91FF90EF90DF9092
:1019D000CF9008958F929F92AF92BF92CF92DF9255
:1019E000EF92FF920F931F93CF93DF936C017B01D4
:1019F000EA0100E010E091E0892E912C88E9A82E00
:101A00008AE3B82E2FC0C601A7010E94F20A68819E
:101A100079816F5F7F4F79836883C601A7010E9438
:101A2000020C892B39F488819981019799838883E5
:101A300001E010E068817981C601A7010E94020CD3
:101A400010928702109286024B990AC00115110567
:101A500039F49092870280928602C5010197F1F7CE
:101A60000E9484148091860290918702892B41F014
:101A70000115110529F468817981161617061CF2E3
:101A8000DF91CF911F910F91FF90EF90DF90CF905A
:101A9000BF90AF909F908F9008958F929F92AF923A
:101AA000BF92CF92DF92EF92FF920F931F93CF934B
:101AB000DF936C017B01EA0100E010E031E0832E4E
:101AC000912C28E9A22E2AE3B22E2FC0C601A7012D
:101AD0000E94F20A6881798161507040798368833D
:101AE000C601A7010E94020C892B39F488819981D3
:101AF00001969983888301E010E068817981C601AD
:101B0000A7010E94020C10928502109284024A9949
:101B10000AC00115110539F4909285028092840261
:101B2000C5010197F1F70E9484148091840290917D
:101B30008502892B41F00115110529F4688179810D
:101B4000161617061CF2DF91CF911F910F91FF908F
:101B5000EF90DF90CF90BF90AF909F908F900895BF
:101B6000EF92FF920F931F93CF93DF938C017B0132
:101B7000EA0168817981A7010E94F20A688179816E
:101B8000605F7F4F79836883C801A7010E94020CC0
:101B9000892B19F020E030E00CC068817981605118
:101BA000704079836883C801A7010E94020C21E07C
:101BB00030E0C901DF91CF911F910F91FF90EF901D
:101BC0000895EF92FF920F931F93CF93DF937C01C1
:101BD0008B01EA018091880290918902892B49F456
:101BE0001FC00E948414329B04C01092890210927C
:101BF0008802C701B801AE010E94B00D892B31F4F3
:101C00008091880290918902892B59F7109289025C
:101C1000109288020E94841488EA91E60197F1F7F5
:101C2000DF91CF911F910F91FF90EF900895CF9288
:101C3000DF92EF92FF920F931F937C018B016A0159
:101C4000FA0160817181A8010E944D0DF601608149
:101C50007181C701A8010E94EA0CF60160817181BF
:101C6000C701A8010E94E10DF80160817181C701DF
:101C7000A6010E94AD0CF80160817181C701A60127
:101C80000E94700C1F910F91FF90EF90DF90CF900A
:101C90000895CF93DF93CBE6D0E0CE010E948B0670
:101CA0000E941F14CE0101960E948B060E941F14F1
:101CB000CE0102960E948B060E941F14CE0103964D
:101CC0000E948B060E941F140E948414609681E07B
:101CD000CB38D80711F7CAE0D0E0CE010E948B06BE
:101CE0000E941F14CE0105960E948B060E941F14AD
:101CF0000E948414609681E0CA38D80771F7CBE05F
:101D0000D0E0CE010E948B060E941F140E94841412
:101D10002196CF30D105A9F7DF91CF9108958CE0BE
:101D20000E94E7150E94DF1580E00E94D7140895F5
:101D30000F931F93DF93CF9300D000D0CDB7DEB7C2
:101D40002DB73EB7285030400FB6F8943EBF0FBEB7
:101D50002DBFEDB7FEB731968E010F5F1F4FADB7A8
:101D6000BEB712961C930E93119724E030E0338394
:101D7000228326E431E035832483978386830E947F
:101D800002182DB73EB7285F3F4F0FB6F8943EBFFD
:101D90000FBE2DBF80E064E00E943A1689E491E016
:101DA0000E946A1684E064E00E943A16C8010E940C
:101DB0006A160F900F900F900F90CF91DF911F91A7
:101DC0000F9108950F931F93DF93CF93CDB7DEB795
:101DD0002A970FB6F894DEBF0FBECDBF2DB73EB722
:101DE0002A5030400FB6F8943EBF0FBE2DBFEDB75E
:101DF000FEB731968E010F5F1F4FADB7BEB712967B
:101E00001C930E9311972AE030E03383228320E560
:101E100031E03583248366837783808791870E94AE
:101E200002182DB73EB7265F3F4F0FB6F8943EBF5E
:101E30000FBE2DBF80E060E00E943A1684E591E07D
:101E40000E946A1687E060E00E943A16C8010E946C
:101E50006A162A960FB6F894DEBF0FBECDBFCF919B
:101E6000DF911F910F910895CF93DF93EB010E94B3
:101E7000181A688379838A839B8360507A4C8A49D5
:101E80009B4320F0188219821A821B82DF91CF9126
:101E90000895BF92CF92DF92EF92FF920F931F931C
:101EA000CF93DF937B018B01EC0158E1C52ED12C40
:101EB000C80ED91E41E4B42E0FC0CE010E94101AE4
:101EC000982F81548A3118F4F801908302C0F801E8
:101ED000B08228960F5F1F4FCC15DD0571F7F70113
:101EE0001382DF91CF911F910F91FF90EF90DF90C0
:101EF000CF90BF9008956F927F928F929F92AF92F2
:101F0000BF92CF92DF92EF92FF920F931F93DF93D6
:101F1000CF93CDB7DEB72A970FB6F894DEBF0FBECA
:101F2000CDBF80E190E060E972E00E94340F80E371
:101F300090E064E972E00E94340F80E590E068E987
:101F400072E00E94340FACE9AA2EA2E0BA2E80E71C
:101F500090E0B5010E94490FF0EA8F2EF2E09F2E2B
:101F600088E890E0B4010E94490FE4EA6E2EE2E0B6
:101F70007E2E80EA90E0B3010E94490F80E061E08C
:101F80000E943A1689E691E00E946A168DB79EB7C4
:101F90000A970FB6F8949EBF0FBE8DBFEDB7FEB780
:101FA00031968E010F5F1F4FADB7BEB712961C93CF
:101FB0000E9311977AE0C72ED12CD382C28260E5AE
:101FC000E62E61E0F62EF582E482809190029091F7
:101FD0009102A0919202B091930286839783A08789
:101FE000B1870E9402188DB79EB70A960FB6F89473
:101FF0009EBF0FBE8DBF8BE061E00E943A16C80104
:102000000E946A16ADB7BEB71A970FB6F894BEBF56
:102010000FBEADBFEDB7FEB7319612961C930E936F
:102020001197D382C282F582E482809194029091CA
:102030009502A0919602B091970286839783A0871C
:10204000B1870E9402188DB79EB70A960FB6F89412
:102050009EBF0FBE8DBF8BE062E00E943A16C801A2
:102060000E946A16ADB7BEB71A970FB6F894BEBFF6
:102070000FBEADBFEDB7FEB7319612961C930E930F
:102080001197D382C282F582E48280919802909166
:102090009902A0919A02B0919B0286839783A087B0
:1020A000B1870E9402188DB79EB70A960FB6F894B2
:1020B0009EBF0FBE8DBF8BE063E00E943A16C80141
:1020C0000E946A1687E061E00E943A16C5010E94EC
:1020D0006A1687E062E00E943A16C4010E946A16FE
:1020E00087E063E00E943A16C3010E946A162A96AE
:1020F0000FB6F894DEBF0FBECDBFCF91DF911F9119
:102100000F91FF90EF90DF90CF90BF90AF909F9096
:102110008F907F906F900895CF92DF92EF92FF9211
:102120000F931F93DF93CF9300D00F92CDB7DEB7FD
:102130006B017C018091900290919102A09192029A
:10214000B09193028C159D05AE05BF0508F046C001
:1021500084EA92E060EA72E043E050E00E94F31704
:102160008091940290919502A0919602B09197026D
:102170008093980290939902A0939A02B0939B0245
:1021800080EA92E06CE972E043E050E00E94F317CD
:102190008091900290919102A0919202B09193024D
:1021A0008093940290939502A0939602B093970225
:1021B0008E010F5F1F4FC8010E9408098CE992E051
:1021C000B80143E050E00E94F317C0929002D09211
:1021D0009102E0929202F092930260C08091940288
:1021E00090919502A0919602B09197028C159D0551
:1021F000AE05BF0570F584EA92E060EA72E043E064
:1022000050E00E94F3178091940290919502A09162
:102210009602B09197028093980290939902A093AE
:102220009A02B0939B028E010F5F1F4FC8010E945C
:10223000080980EA92E0B80143E050E00E94F317F9
:10224000C0929402D0929502E0929602F092970288
:1022500025C08091980290919902A0919A02B09124
:102260009B028C159D05AE05BF0518F000E010E03F
:1022700017C08E010F5F1F4FC8010E94080984EA32
:1022800092E0B80143E050E00E94F317C092980238
:10229000D0929902E0929A02F0929B0201E010E043
:1022A000409190025091910260919202709193023C
:1022B00080E190E00E94321A409194025091950280
:1022C000609196027091970280E390E00E94321A2A
:1022D000409198025091990260919A0270919B02EC
:1022E00080E590E00E94321A80E790E06CE972E0AD
:1022F0000E94E90888E890E060EA72E00E94E9083C
:1023000080EA90E064EA72E00E94E9080E947B0F94
:10231000C8010F900F900F90CF91DF911F910F91F7
:10232000FF90EF90DF90CF900895CF93DF9380E000
:1023300090E00E941E1AEC018FEFCF3FD80711F4F6
:10234000C0E0D0E0CE010E94E817219680E090E046
:10235000BE010E943A1ADF91CF9108951092850232
:1023600010928402109287021092860210928902C3
:102370001092880210928D0210928C0210928F029D
:1023800010928E025A9A5B9AE89AE99AE9E6F0E08E
:10239000808181608083808184608083439A429AB7
:1023A000419A409AE8E6F0E0808182608083ECE622
:1023B000F0E0808188608083808184608083808178
:1023C0008260808380818160808385E066E047E071
:1023D0000E94D01381E00E94181488EA91E60197C8
:1023E000F1F70E94C2140E94490E81E090E00E9421
:1023F000980E60E070E080E090E00E94E20E0E94A3
:102400007B0F78940E94951110928B0210928A0291
:1024100008952F923F924F925F926F927F928F9288
:102420009F92AF92BF92CF92DF92EF92FF920F9363
:102430001F93DF93CF93CDB7DEB760970FB6F894B5
:10244000DEBF0FBECDBF0E94E31767E070E00E94C1
:10245000341789879A87AA24BB24650111E0412E8D
:10246000512C22243324E3C00E94E31767E070E07C
:102470000E9434178B879C8724EE3FEF3A83298391
:102480001C821B820E94D00A8B859C850E94C10BF6
:102490004EEC5FEF449EC001459E900D549E900D02
:1024A00011248A5D9D4F18861F829C01442737FDA9
:1024B0004095542F2D873E874F87588B8DC0898537
:1024C0009A85BE016F5F7F4FAE014D5F5F4F0E94E7
:1024D000170E6B817C8189859A85AE014F5F5F4FB6
:1024E0000E94B00D892B19F41E821D822EC0850119
:1024F0000E94220BA60EB71EC81ED91E30E0A316DE
:102500003AECB3063AE9C3063BE3D30640F0BFEF2B
:10251000AB2EB9ECBB2EBAE9CB2EBBE3DB2EC80148
:10252000AA2797FDA095BA2F8A159B05AC05BD0576
:1025300021F0C601B5010E94E20E0E94630A98874D
:102540008F8341E050E05E834D830E9484146D854B
:102550007E858F8598890E94B3033B014C0120E062
:1025600030E04AE753E40E9429027B018C0120E01D
:1025700030E040E85FE30E94830388231CF461E0BD
:1025800070E023C0C801B70120E03FEF4FE757E4F8
:102590000E9423031816ACF4C401B30120E030E01C
:1025A00040E251E40E9429020E94530006C089E1E2
:1025B00090E00197F1F76150704061157105B9F72E
:1025C00007C0C801B7010E945300CB010197F1F782
:1025D0008D819E81892B39F480918A0290918B02A2
:1025E000892B09F46CCF0894211C311CC20105967B
:1025F0009C01249DC001259D900D349D900D1124BA
:102600008215930564F43AE04316510444F40894A7
:10261000411C511CC2010E94980E222433244B8578
:1026200049875C855A878F819885892B41F48091F1
:102630008A0290918B02892B09F416CF11C0C60132
:10264000B5010E948C10892B39F0C601B5010E949A
:10265000E20EC2010E94980E10928B0210928A0222
:102660000E94CC1480E197E229E130E0F901319732
:10267000F1F70197D9F70E94C21480918A029091D4
:102680008B02892BD1F30E94AE110E940912609631
:102690000FB6F894DEBF0FBECDBFCF91DF911F9173
:1026A0000F91FF90EF90DF90CF90BF90AF909F90F1
:1026B0008F907F906F905F904F903F902F900895F4
:1026C0000E948F0E0E94AE110E94091280E090E0DD
:1026D0000895CF93DF93FC014AB121E030E0C901B6
:1026E0000090AA0202C0880F991F0A94E2F7582F9F
:1026F000482B4AB90090AB0202C0220F331F0A9444
:10270000E2F7422F4095A1E0B0E0382F30951BC092
:102710008BB184238BB9862F90E00197ED0102C025
:10272000CC0FDD1F8A95E2F7CE018E239F23892BE4
:1027300019F08BB1852B02C08BB183238BB98BB180
:10274000822B8BB96150662319F78AB150955823B3
:102750005AB9DF91CF9108950F931F9390E0946041
:102760004BB101E010E098010090A90202C0220FD5
:10277000331F0A94E2F7209524232BB9880F991F61
:102780006CE00E9469138BB10090A90202C0000F97
:10279000111F0A94E2F7802B8BB91F910F910895B6
:1027A000382F842F3093AA026093AB024093A90282
:1027B000ECEAF2E0119292E0EC3DF907D9F72AB188
:1027C00041E050E0FA0102C0EE0FFF1F8A95E2F7E8
:1027D000CF012E2B2AB92BB1822B8BB92AB1CA017A
:1027E00002C0880F991F6A95E2F7282B2AB92BB1EE
:1027F000822B8BB98AB102C0440F551F3A95E2F77C
:10280000842B8AB981E00E94AC1383E00E94AC1350
:1028100088E00E94AC1384E10E94AC1388E10E941E
:10282000AC1384E20E94AC138FEA0E94AC130895AB
:10283000803108F08FE0806A0E94AC1308959C01FB
:1028400097FD14C0FC0143E0F595E7954A95E1F743
:10285000E455FD4F2770307081E090E002C0880F92
:10286000991F2A95E2F72081282B20830895CF9382
:10287000DF93AC0197FF03C0C0E0D0E017C0FC01BC
:1028800063E0F595E7956A95E1F7E455FD4F8081A2
:10289000C82FD0E09A012770307081E090E002C02C
:1028A000880F991F2A95E2F7C82BD92B20E030E03A
:1028B000CA0168E070E00E943417FB01E455FD4F47
:1028C000808190E0C817D90711F021E030E0C901FC
:1028D000DF91CF9108959C0197FD15C0FC0173E035
:1028E000F595E7957A95E1F7E455FD4F277030703F
:1028F00081E090E002C0880F991F2A95E2F7809549
:1029000020818223808308950F931F93CF93DF93B9
:102910002BB181E090E00090A90202C0880F991FBE
:102920000A94E2F7809582238BB985E090E063E01A
:102930000E94691380E090E067E00E9469130CEA4E
:1029400012E0F801D081C0E0818190E08C2B9D2BBA
:1029500060E10E9469130E5F1F4FF2E00C3D1F07FC
:1029600081F72BB181E090E00090A90202C0880FAE
:10297000991F0A94E2F7282B2BB9DF91CF911F9171
:102980000F910895ECEAF2E0119282E0EC3DF80735
:10299000D9F70E9484140895ECEAF2E08FEF819356
:1029A00092E0EC3DF907D9F70E948414089588233A
:1029B00021F08091A802877F03C08091A8028860DF
:1029C0008093A8026091A80280E00E94C716089533
:1029D00080E062E00E94C31600C080E062E00E94D6
:1029E000BF1608951F93182F662321F08091A80227
:1029F000816003C08091A8028E7F8093A80280919D
:102A0000A8028D7F8093A8026091A80280E00E94B6
:102A1000C7168091A8028F778093A8028091A802A0
:102A20008F7B8093A8028091A8028F7D8093A8025B
:102A30008091A8028F7E8093A80217FF05C0809125
:102A4000A80280688093A80216FF05C08091A802A2
:102A500080648093A80215FF05C08091A80280625F
:102A60008093A80214FF05C08091A8028061809322
:102A7000A8026091A80280E00E94C7160E94E81494
:102A80008091A8028F778093A8028091A8028F7B03
:102A90008093A8028091A8028F7D8093A8028091E4
:102AA000A8028F7E8093A80213FF05C08091A80220
:102AB00080688093A80212FF05C08091A8028064FC
:102AC0008093A80211FF05C08091A80280628093C4
:102AD000A80210FF05C08091A80280618093A8021F
:102AE0006091A80280E00E94C7160E94E8148091BD
:102AF000A80280618093A8028091A80280628093DE
:102B0000A8028091A80280648093A8028091A80204
:102B100080688093A8026091A80280E00E94C71696
:102B20001F9108951F93882321F08091A80281604E
:102B300003C08091A8028E7F8093A8028091A80292
:102B400082608093A8026091A80280E00E94C7166C
:102B500080E062E00E94C31600C080E064E00E9452
:102B60007616182F80E062E00E94BF1600C080E059
:102B700062E00E94C31600C080E064E00E94761606
:102B80001295107F8F70182B80E062E00E94BF16B4
:102B9000812F1F91089580E00E94921587FDFBCF41
:102BA00000C080E00E94921508951F93182F0E9484
:102BB000CB15812F60E00E94F2141F91089582E0EE
:102BC0000E94D515089581E00E94D5150895FF92C1
:102BD0000F931F93F82E0E94DE161092A8026091A8
:102BE000A80280E00E94C71680EA9FE00197F1F7F3
:102BF0008091A80280628093A8028091A8028061DF
:102C00008093A8026091A80280E00E94C7160E94EB
:102C1000E81480EE94E00197F1F70E94E81400E1D7
:102C200010E0C8010197F1F70E94E814C80101976C
:102C3000F1F78091A8028F7E8093A8026091A8028C
:102C400080E00E94C7160E94E814C8010197F1F7BE
:102C500088E20E94D51588E00E94D5150E94E315F0
:102C600086E00E94D5158F2D0E94D5151F910F91DA
:102C7000FF900895662311F4805809C0613011F463
:102C8000805405C0623011F48C5601C08C520E94F1
:102C9000D51508951F93182F0E94CB15982F1A3021
:102CA00099F4843110F480E40BC08054843110F422
:102CB00084E106C094519C3210F080E001C084E5AC
:102CC00080580E94D51504C0812F61E00E94F21443
:102CD0001F910895CF93DF93EC0102C00E944A1622
:102CE00089918823D9F7DF91CF910895883088F4AE
:102CF000683078F4E82FF0E0E452FD4F80819927A6
:102D000087FD909502C0959587956A95E2F7817049
:102D100008958FEF08951F93282F883068F5683045
:102D200058F5A82FB0E0FD01E452FD4FE0814423A7
:102D300051F081E090E002C0880F991F6A95E2F798
:102D40001E2F182B0AC081E090E002C0880F991F47
:102D50006A95E2F7182F10951E23A452BD4F1C93BD
:102D6000295D822F880F0E94F416812F0E9422175E
:102D70000E941A1780E001C08FEF1F91089540E074
:102D80000E948B16089541E00E948B1608951F93B0
:102D9000162F883010F08FEF0FC0E82FF0E0E452CC
:102DA000FD4F6083895D880F0E94F416812F0E9479
:102DB00022170E941A1780E01F9108950E94EE16B4
:102DC00083E08A95F1F780E090E0FC01E452FD4F4A
:102DD0001082019688309105C1F708951092B900CC
:102DE0008AE28093B8000895982F84EA8093BC000B
:102DF0008091BC0087FFFCCF8091B900887F88302C
:102E000021F0803111F081E008959093BB0084E8B7
:102E10008093BC008091BC0087FFFCCF9091B900EB
:102E2000987F983111F480E0089580E0903409F0A3
:102E300081E0089584E98093BC008091BC0084FD0A
:102E4000FCCF08958093BB0084E88093BC00809100
:102E5000BC0087FFFCCF8091B90090E0887F88326A
:102E600009F091E0892F089597FB092E07260AD0D3
:102E700077FD04D00CD006D000201AF4709561952F
:102E80007F4F0895F6F7909581959F4F0895AA1B5F
:102E9000BB1B51E107C0AA1FBB1FA617B70710F045
:102EA000A61BB70B881F991F5A95A9F78095909577
:102EB000BC01CD0108952F923F924F925F926F9285
:102EC0007F928F929F92AF92BF92CF92DF92EF92BA
:102ED000FF920F931F93CF93DF93CDB7DEB7CA1B3B
:102EE000DB0B0FB6F894DEBF0FBECDBF09942A8866
:102EF000398848885F846E847D848C849B84AA840E
:102F0000B984C884DF80EE80FD800C811B81AA819A
:102F1000B981CE0FD11D0FB6F894DEBF0FBECDBF65
:102F2000ED010895A0E0B0E0E8E9F7E10C94631743
:102F3000EC01A880B980CA80DB80A114B104C1046F
:102F4000D10441F484E2A82E89EDB82E8BE5C82E79
:102F500087E0D82EC601B5012DE133EF41E050E006
:102F60000E940E1B27EA31E440E050E00E94EF1A75
:102F70007B018C01C601B5012DE133EF41E050E04A
:102F80000E940E1BCA01B9012CEE34EF4FEF5FEF28
:102F90000E94EF1A6E0D7F1D801F911F97FF04C0C6
:102FA0006150704080409048688379838A839B8316
:102FB0009B013F77C901CDB7DEB7EAE00C947F17DC
:102FC0000E949217089588E792E00E949217089550
:102FD000A0E0B0E08093780290937902A0937A0207
:102FE000B0937B020895FB01DC014150504048F052
:102FF00001900D920020C9F701C01D924150504030
:10300000E0F70895AEE0B0E0E8E0F8E10C9469176D
:103010000D891E898F89988D97FF02C080E090E806
:1030200001979E838D831A83098386E08C839E019A
:10303000255E3F4FCE010196698D7A8DA9010E94D0
:1030400033184D815E8157FD0AC02F8138854217A4
:1030500053070CF49A01020F131FF80110822E96E9
:10306000E4E00C948517ABE0B0E0E9E3F8E10C9400
:103070005B173C012B015A01FC01178216828381E8
:1030800081FD03C06FEF7FEFC6C19AE0892E1E015C
:103090000894211C311CF3012381F20123FD859149
:1030A00023FF81912F01882309F4B2C1853239F4BD
:1030B00023FD859123FF81912F01853229F490E032
:1030C000B3010E94551AE7CF982FFF24EE249924CC
:1030D000FFE1FF15D0F09B3269F09C3228F490326A
:1030E00059F0933291F40EC09D3249F0903369F457
:1030F00041E024C052E0F52A84E0F82A28C098E094
:10310000F92A25C0E0E1FE2A22C0F7FC29C0892F58
:1031100080538A3070F4F6FE05C0989C902C1124E0
:10312000980E15C0E89CE02C1124E80EF0E2FF2A6E
:103130000EC09E3229F4F6FC6BC140E4F42A07C0AD
:103140009C3619F450E8F52A02C0983649F4F20189
:1031500023FD959123FF91912F01992309F0B8CF79
:10316000892F8554833018F08052833038F444E03E
:1031700050E0A40EB51E5FE359830FC0933631F0C3
:10318000933779F0933509F056C020C0F50180815E
:10319000898342E050E0A40EB51E610101E010E019
:1031A00012C0F501C080D180F6FC03C06FEF7FEF45
:1031B00002C0692D70E042E050E0A40EB51EC601C9
:1031C0000E944A1A8C015FE7F52214C0F501C08005
:1031D000D180F6FC03C06FEF7FEF02C0692D70E075
:1031E00042E050E0A40EB51EC6010E943F1A8C01B9
:1031F00050E8F52AF3FE07C01AC080E290E0B30160
:103200000E94551AEA948E2D90E008171907A8F32A
:103210000EC0F601F7FC8591F7FE81916F0190E0F9
:10322000B3010E94551AE110EA94015010400115B3
:10323000110579F7EAC0943611F0993669F5F7FE71
:1032400008C0F501208131814281538184E090E002
:103250000AC0F501808191819C01442737FD40958A
:10326000542F82E090E0A80EB91E9FE6F92257FF86
:1032700009C050954095309521953F4F4F4F5F4F76
:10328000E0E8FE2ACA01B901A1012AE030E00E946B
:10329000811AD82ED21840C0953729F41F2D1F7ED1
:1032A0002AE030E01DC01F2D197F9F3661F0903756
:1032B00020F4983509F0ACC00FC0903739F098373A
:1032C00009F0A6C004C028E030E00AC0106114FD77
:1032D000146020E130E004C014FD166020E132E00B
:1032E00017FF08C0F501608171818281938144E0FC
:1032F00050E008C0F50180819181BC0180E090E040
:1033000042E050E0A40EB51EA1010E94811AD82E01
:10331000D2188FE7F82EF122F6FE0BC05EEFF522F1
:10332000D91438F4F4FE07C0F2FC05C08FEEF82281
:1033300002C01D2D01C0192DF4FE0DC0FE01ED0DC2
:10334000F11D8081803319F499EEF92208C01F5FC6
:10335000F2FE05C003C08F2D867809F01F5F0F2D88
:10336000F3FC14C0F0FE0FC01E1510F09D2C0BC016
:103370009D2C9E0C911A1E2D06C080E290E0B30198
:103380000E94551A1F5F1E15C0F304C01E1510F4CD
:10339000E11A01C0EE2404FF0FC080E390E0B30106
:1033A0000E94551A02FF1DC001FD03C088E790E08E
:1033B0000EC088E590E00BC0802F867891F001FF69
:1033C00002C08BE201C080E2F7FC8DE290E0B30125
:1033D0000E94551A06C080E390E0B3010E94551A7E
:1033E0009A94D914C0F3DA94F101ED0DF11D8081A6
:1033F00090E0B3010E94551ADD20A9F706C080E2D3
:1034000090E0B3010E94551AEA94EE20C1F743CE32
:10341000F30166817781CB012B96E2E10C9477175B
:10342000F999FECF92BD81BDF89A992780B508958C
:10343000A6E1B0E044E050E00C94E11AA8E1B0E06D
:1034400042E050E00C94E11A262FF999FECF1FBA02
:1034500092BD81BD20BD0FB6F894FA9AF99A0FBEBD
:1034600001960895242F0E94251A252F0E94251ABF
:103470000C943A1A0E94241A272F0C94251AFC0146
:103480000590615070400110D8F7809590958E0F8F
:103490009F1F0895FC016150704001900110D8F702
:1034A000809590958E0F9F1F08950F931F93CF9334
:1034B000DF938C01EB018B8181FF1BC082FF0DC06C
:1034C0002E813F818C819D812817390764F4E88122
:1034D000F9810193F983E88306C0E885F985802F97
:1034E0000995892B31F48E819F8101969F838E836C
:1034F00002C00FEF1FEFC801DF91CF911F910F9115
:103500000895FA01AA27283051F1203181F1E89479
:103510006F936E7F6E5F7F4F8F4F9F4FAF4FB1E0C6
:103520003ED0B4E03CD0670F781F891F9A1FA11DC1
:10353000680F791F8A1F911DA11D6A0F711D811DC2
:10354000911DA11D20D009F468943F912AE0269F87
:1035500011243019305D3193DEF6CF010895462FE6
:103560004770405D4193B3E00FD0C9F7F6CF462FC7
:103570004F70405D4A3318F0495D31FD4052419330
:1035800002D0A9F7EACFB4E0A695979587957795ED
:103590006795BA95C9F700976105710508959B0174
:1035A000AC010A2E06945795479537952795BA95FD
:1035B000C9F7620F731F841F951FA01D0895DC01BA
:1035C000CB01FC01F999FECF06C0F2BDE1BDF89A2E
:1035D000319600B40D9241505040B8F70895629F63
:1035E000D001739FF001829FE00DF11D649FE00DFB
:1035F000F11D929FF00D839FF00D749FF00D659F5C
:10360000F00D9927729FB00DE11DF91F639FB00D5A
:10361000E11DF91FBD01CF011124089597FB092E6B
:1036200005260ED057FD04D014D00AD0001C38F463
:1036300050954095309521953F4F4F4F5F4F0895DE
:10364000F6F790958095709561957F4F8F4F9F4FBE
:103650000895A1E21A2EAA1BBB1BFD010DC0AA1FD3
:10366000BB1FEE1FFF1FA217B307E407F50720F0EB
:10367000A21BB30BE40BF50B661F771F881F991F66
:103680001A9469F760957095809590959B01AC01AF
:0A369000BD01CF010895F894FFCFAB
:10369A0041204220432044204520462047204820FC
:1036AA0049204A004B204C204D204E204F205020CC
:1036BA0051205220532054002020552056205720B4
:1036CA00582059205A203C203E004E616D653A2010
:1036DA005F5F5F005F002564004C564C202020008D
:1036EA00256C640053636F72653A202020202020E5
:1036FA0020202020202020200020486967683A00E6
:10370A00000000000000000000010202030303039E
:10371A000404040404040404050505050505050557
:10372A000505050505050505060606060606060637
:10373A00060606060606060606060606060606061F
:10374A000606060606060606070707070707070707
:10375A0007070707070707070707070707070707EF
:10376A0007070707070707070707070707070707DF
:10377A0007070707070707070707070707070707CF
:10378A0007070707070707070808080808080808B7
:10379A00080808080808080808080808080808089F
:1037AA00080808080808080808080808080808088F
:1037BA00080808080808080808080808080808087F
:1037CA00080808080808080808080808080808086F
:1037DA00080808080808080808080808080808085F
:1037EA00080808080808080808080808080808084F
:1037FA00080808080808080808080808080808083F
:0C380A0008080808080808080100000071
:00000001FF
